:100000000C945F000C9487000C9487000C9487007C
:100010000C9487000C9487000C9487000C94870044
:100020000C9487000C9487000C9487000C94870034
:100030000C9487000C9487000C9487000C94870024
:100040000C943A050C9487000C94AA050C94840532
:100050000C9487000C9487000C9487000C94870004
:100060000C94DC050C94870000000000240027009D
:100070002A0000000000250028002B0004040404CE
:100080000404040402020202020203030303030342
:10009000020102040810204080010204081020011F
:1000A0000204081020800000000800020100000384
:1000B000040700000000000000000000FB061124FF
:1000C0001FBECFEFD8E0DEBFCDBF12E0A0E0B1E0B1
:1000D000E6E9F9E102C005900D92A033B107D9F726
:1000E00023E0A0E3B2E001C01D92A23CB207E1F719
:1000F00010E0CFE5D0E004C02197FE010E94E409A2
:10010000CE35D107C9F70E9443070C94C90C0C9453
:10011000000090E0FC01EA55FF4F2491FC01EF56EE
:10012000FF4F3491FC01E458FF4FE491EE23C9F0F6
:10013000222339F0233001F1A8F4213019F12230C3
:1001400029F1F0E0EE0FFF1FEE58FF4FA591B4919B
:100150008FB7F894EC91611126C030953E233C9303
:100160008FBF08952730A9F02830C9F0243049F70F
:10017000809180008F7D03C0809180008F77809375
:100180008000DFCF84B58F7784BDDBCF84B58F7DD2
:10019000FBCF8091B0008F778093B000D2CF809159
:1001A000B0008F7DF9CF3E2BDACF3FB7F894809126
:1001B000090390910A03A0910B03B0910C0326B59B
:1001C000A89B05C02F3F19F00196A11DB11D3FBF8F
:1001D000BA2FA92F982F8827BC01CD01620F711D5E
:1001E000811D911D42E0660F771F881F991F4A9558
:1001F000D1F708958F929F92AF92BF92CF92DF92E4
:10020000EF92FF924B015C010E94D5006B017C01D3
:100210000E94D5006C197D098E099F09683E7340C4
:1002200081059105A8F321E0821A9108A108B1087F
:1002300088EEC80E83E0D81EE11CF11C81149104E5
:10024000A104B10429F7FF90EF90DF90CF90BF9009
:10025000AF909F908F90089508950895AF92BF92A8
:10026000CF92DF92EF92FF920F931F93CF93DF9382
:100270006C017B018B01040F151FEB015E01AE18B1
:10028000BF08C017D10759F06991D601ED91FC91D3
:100290000190F081E02DC6010995892B79F7C50100
:1002A000DF91CF911F910F91FF90EF90DF90CF9052
:1002B000BF90AF900895FC01538D448D252F30E001
:1002C000842F90E0821B930B541710F0CF96089563
:1002D00001970895FC01918D828D981761F0A28D90
:1002E000AE0FBF2FB11D5D968C91928D9F5F9F7356
:1002F000928F90E008958FEF9FEF0895FC01918D0C
:10030000828D981731F0828DE80FF11D858D90E078
:1003100008958FEF9FEF0895FC01918D228D892F15
:1003200090E0805C9F4F821B91098F7399270895FD
:100330008DE093E00E948C0121E0892B09F420E0FC
:10034000822F089580E090E0892B29F00E94980187
:1003500081110C9400000895FC01A48DA80FB92F01
:10036000B11DA35ABF4F2C91848D90E001968F73DD
:100370009927848FA689B7892C93A089B1898C91FC
:10038000837080648C93938D848D981306C002884B
:10039000F389E02D80818F7D80830895EF92FF9215
:1003A0000F931F93CF93DF93EC0181E0888F9B8D98
:1003B0008C8D98131AC0E889F989808185FF15C052
:1003C0009FB7F894EE89FF896083E889F989808175
:1003D0008370806480839FBF81E090E0DF91CF9144
:1003E0001F910F91FF90EF900895F62E0B8D10E066
:1003F0000F5F1F4F0F731127E02E8C8D8E110CC0D5
:100400000FB607FCFACFE889F989808185FFF5CF1F
:10041000CE010E94AC01F1CFEB8DEC0FFD2FF11D51
:10042000E35AFF4FF0829FB7F8940B8FEA89FB895C
:1004300080818062CFCFCF93DF93EC01888D8823BA
:10044000B9F0AA89BB89E889F9898C9185FD03C037
:10045000808186FD0DC00FB607FCF7CF8C9185FF1C
:10046000F2CF808185FFEDCFCE010E94AC01E9CFB4
:10047000DF91CF910895089520918502260F3327AB
:10048000331F21323105ECF42091CE02FC0190E0C3
:1004900080E0243069F082E00895A09185022191E6
:1004A000AC014B595D4FA40FB52FB11D2C93019694
:1004B000861798F380918502680F6093850280E02B
:1004C000089581E008951092CE0281E08093CD02DC
:1004D0001092A80261E082E10E94890061E083E15C
:1004E0000E948900E9EBF0E080818E7F808380812B
:1004F0008D7F808388E48093B80085E48093BC007E
:100500000895CF93DF9391E0909364028823B9F02C
:10051000C091B800D091BA008091BC008A7B8093D2
:10052000BC0060E082E10E94890060E083E10E94FB
:1005300089000E946302D093BA00C093B800DF9193
:10054000CF9108950895E091FD028091FC02E81793
:1005500030F4F0E0EC5BFD4F808190E008958FEF88
:100560009FEF08959091FD028091FC022FEF3FEFE5
:10057000981748F4E92FF0E0EC5BFD4F208130E064
:100580009F5F9093FD02C90108958091FC029091B4
:10059000FD02891B990B0895CF92DF92EF92FF9293
:1005A0000F931F93CF93DF937C01CB018A0120919E
:1005B000D402222389F0EB016B01C40ED51ECC15A9
:1005C000DD0569F06991D701ED91FC910190F08111
:1005D000E02DC7010995F3CF642F0E943C02C801AA
:1005E000DF91CF911F910F91FF90EF90DF90CF900F
:1005F0000895CF93DF931F92CDB7DEB76983209123
:10060000D4022223F9F02091FA02203258F021E09E
:1006100030E0FC013383228390E080E00F90DF9193
:10062000CF9108958091FB02E82FF0E0EB52FD4F4F
:10063000998190838F5F8093FB028093FA0281E01F
:1006400090E0ECCF61E0CE0101960E943C02F7CF32
:10065000CF92DF92EF92FF920F931F93CF93DF938E
:10066000FC01C48121E02093D402C093F5021092D2
:10067000FB021092FA028385682B8AEA93E00E94BB
:10068000F902D091FA02D13208F092C00E94D5004E
:100690006B017C018091CE02811165C082E0809364
:1006A000CE0281E08093CD028FEF8093CC02109236
:1006B000CB02D093CA02A5EDB2E0EAEAF2E080E014
:1006C000D81385C01092A9028091A902CC0FC82B23
:1006D000C093A9028091A802813009F07CC01092D9
:1006E000A8020E94D5006B017C018091A902809331
:1006F000BB008091D0029091D102A091D202B09122
:10070000D302892B8A2B8B2B99F00E94D500009164
:10071000D0021091D1022091D2023091D3026C19F3
:100720007D098E099F090617170728073907E0F189
:100730008091BC0083FDD9CF85EC8093BC000E94E2
:10074000D5006B017C018091CE02823009F445C056
:100750008091CC028F3F61F18091CC02803241F1D7
:100760008091CC0225C08091D0029091D102A091BD
:10077000D202B091D302892B8A2B8B2B09F48ACF1A
:100780000E94D5000091D0021091D1022091D20296
:100790003091D3026C197D098E099F09061717073E
:1007A0002807390708F076CF8091CF020E94810296
:1007B0001092FB021092FA021092D402DF91CF91B4
:1007C0001F910F91FF90EF90DF90CF9008959D9132
:1007D00091938F5F75CF85EEB0CF8091D0029091CD
:1007E000D102A091D202B091D302892B8A2B8B2BFC
:1007F00009F4A9CF0E94D5000091D0021091D10236
:100800002091D2023091D3026C197D098E099F0983
:10081000061717072807390708F095CFC5CF90E0CE
:1008200080E008950F931F93CF938C01C62F0E94F1
:1008300028036C2F6460C8010E9428036C2F6B7F13
:10084000C8010E94280383EC90E00197F1F7CF9153
:100850001F910F9108950F931F93CF93DF938C01F6
:10086000D62FC42F607F642B0E94120480E1D89F92
:10087000B00111246C2BC801DF91CF911F910F9112
:100880000C941204CF93DF93CDB7DEB728970FB641
:10089000F894DEBF0FBECDBF98E0E0E0F1E0DE01EE
:1008A000119601900D929A95E1F79091BE039617DB
:1008B00008F46FEF262F30E0220F331F41E050E0A5
:1008C0004C0F5D1F240F351FF9016081680F6068B0
:1008D00040E086EB93E028960FB6F894DEBF0FBE9B
:1008E000CDBFDF91CF910C942B0440E061E086EB0B
:1008F00093E00E942B048BE39FE10197F1F70895A9
:1009000041E00E942B0481E090E00895FB010190FA
:100910000020E9F73197AF01461B570BDC01ED9141
:10092000FC910280F381E02D0994CF93DF93BC0109
:100930008DE093E00E948604EC0168E371E08DE0B5
:1009400093E00E9486048C0F9D1FDF91CF91089544
:100950000C94860485ED8093BC008091D002909128
:10096000D102A091D202B091D3020796A11DB11D70
:1009700023E0B695A795979587952A95D1F720916D
:10098000BC0024FD03C01092CE0208954091D00215
:100990005091D1026091D2027091D302452B462B27
:1009A000472B69F30097A105B10541F02AE22A958A
:1009B000F1F700C00197A109B109E1CF8091CF0201
:1009C0000C94810261E082E00E9442048091010364
:1009D0008F93809100038F938BE391E09F938F938C
:1009E00080E392E09F938F930E94F10960E372E0AD
:1009F00086EB93E00E94A80480910003909101038C
:100A00000F900F900F900F900F900F9081359105E0
:100A1000A4F082E491E00E94950461E088E00E94E5
:100A200042046EE571E080E392E00E94EA0960E32F
:100A300072E086EB93E00C94A8048897899758F4A9
:100A400089E691E00E94950461E088E00E944204FA
:100A500063E871E0E8CF8EE891E00E94950461E0E0
:100A600082E00E94890061E088E00E94420465EB18
:100A700071E0D9CF1F920F920FB60F9211242F93CE
:100A80003F938F939F93AF93BF9380910503909172
:100A90000603A0910703B09108033091040323E0FB
:100AA000230F2D3758F50196A11DB11D2093040386
:100AB0008093050390930603A0930703B093080364
:100AC0008091090390910A03A0910B03B0910C034C
:100AD0000196A11DB11D8093090390930A03A09371
:100AE0000B03B0930C03BF91AF919F918F913F91F6
:100AF0002F910F900FBE0F901F90189526E8230F8F
:100B00000296A11DB11DD2CF1F920F920FB60F9268
:100B100011242F933F934F935F936F937F938F9302
:100B20009F93AF93BF93EF93FF938DE093E00E9469
:100B3000AC01FF91EF91BF91AF919F918F917F9108
:100B40006F915F914F913F912F910F900FBE0F903A
:100B50001F9018951F920F920FB60F9211242F938A
:100B60008F939F93EF93FF93E0911D03F0911E03EA
:100B70008081E0912303F091240382FD1BC09081CA
:100B8000809126038F5F8F7320912703821741F096
:100B9000E0912603F0E0E35FFC4F958F80932603FE
:100BA000FF91EF919F918F912F910F900FBE0F901A
:100BB0001F9018958081F4CF1F920F920FB60F925D
:100BC00011242F933F934F935F936F937F938F9352
:100BD0009F93AF93BF93EF93FF938091B900887F6A
:100BE000803609F44AC0F0F5883209F4A7C018F538
:100BF000803109F49BC0B8F4882309F4F9C0883027
:100C000009F494C0FF91EF91BF91AF919F918F91A3
:100C10007F916F915F914F913F912F910F900FBEF8
:100C20000F901F901895883109F488C0803251F7D1
:100C30008093CC0214C0803409F49DC040F480330A
:100C4000B9F38833F9F68093CC0285ECB0C08035D7
:100C500009F485C0883509F496C0883499F60E9455
:100C6000AA04D0CF883909F48CC038F5883729F028
:100C700050F4883611F0803729F683E08093CE0255
:100C80001092A70257C0883809F47BC0803919F048
:100C9000803809F0B7CF8091A702803208F071C088
:100CA000E091A70281E08E0F8093A7028091BB00A4
:100CB000F0E0E957FD4F80833DC0803B39F0E0F420
:100CC000803A09F479C0883A09F09CCF84E0809397
:100CD000CE021092860210928502E091F802F09105
:100CE000F90209958091850281110FC081E08093FE
:100CF00085021092650209C0803C09F4A6CF883CA9
:100D000009F4A3CF883B09F07DCFE091860281E012
:100D10008E0F80938602F0E0EB59FD4F8081809327
:100D2000BB00909186028091850229C08091A90222
:100D30008093BB0085EC8093BC0064CF9091CB0284
:100D40008091CA02981758F5E091CB0281E08E0F8E
:100D50008093CB02F0E0E655FD4F8081E9CFE09132
:100D6000CB0281E08E0F8093CB028091BB00F0E03C
:100D7000E655FD4F80839091CB028091CA0298176F
:100D8000C8F285E8D8CFE091CB0281E08E0F809346
:100D9000CB028091BB00F0E0E655FD4F808380914F
:100DA000CD0281115CCF81E08093A80284EA809318
:100DB000BC001092CE0226CF85EC8093BC0010922E
:100DC000CE028091A702803230F4E091A702F0E0D9
:100DD000E957FD4F10826091A70270E0E091F602A2
:100DE000F091F70287E892E009951092A7020ACFE6
:100DF0001092CC0234CFEDE0F3E01382128288EE41
:100E000093E0A0E0B0E084839583A683B7832CE0D1
:100E100031E03183208325EC30E03587248724ECD2
:100E200030E03787268720EC30E0318B208B21ECB7
:100E300030E0338B228B22EC30E0358B248B26EC98
:100E400030E0378B268B118E128E138E148EEAEAC9
:100E5000F3E01382128284839583A683B7838EE1A5
:100E600091E091838083E6EBF3E01382128280E3CA
:100E700091E09183808380E2848380E1818782E0B6
:100E8000828713860895CF93DF93CDB7DEB7A197FE
:100E90000FB6F894DEBF0FBECDBF789484B58260E4
:100EA00084BD84B5816084BD85B5826085BD85B50E
:100EB000816085BD80916E00816080936E0010928C
:100EC0008100809181008260809381008091810007
:100ED0008160809381008091800081608093800098
:100EE0008091B10084608093B1008091B0008160F6
:100EF0008093B00080917A00846080937A00809122
:100F00007A00826080937A0080917A008160809379
:100F10007A0080917A00806880937A001092C100F4
:100F2000E0911D03F0911E0382E08083E09119039C
:100F3000F0911A031082E0911B03F0911C038FECD7
:100F4000808310922503E0912103F091220386E033
:100F50008083E0911F03F091200380818061808372
:100F6000E0911F03F0912003808188608083E091ED
:100F70001F03F0912003808180688083E0911F032C
:100F8000F091200380818F7D8083E3E9F0E024915C
:100F9000EEE7F0E08491882399F090E0880F991FA4
:100FA000FC01E859FF4FA591B491FC01EE58FF4FA9
:100FB000859194918FB7F894EC91E22BEC938FBFCD
:100FC0001092FD021092FC021092FB021092FA02A3
:100FD0000E9463028CE291E09093F9028093F80200
:100FE0008DE291E09093F7028093F6021092BB039A
:100FF0008091C003823018F098E09093BB038093F7
:10100000BE0362E370E080E090E00E94FA0060912D
:10101000C10386EB93E00E94280368EE73E080E052
:1010200090E00E94FA0060E386EB93E00E941204D5
:101030000BE416E4C8010197F1F760E386EB93E057
:101040000E941204C8010197F1F760E386EB93E078
:101050000E94120483E592E00197F1F760E286EBCB
:1010600093E00E9412046091BB03606240E086EB53
:1010700093E00E942B0484E08093BC0340E06CE08A
:1010800086EB93E00E942B040E94750482E080931B
:10109000BD0340E066E086EB93E00E942B0440E055
:1010A00062E086EB93E00E942B048BE39FE10197C3
:1010B000F1F70E94750460E081E00E9442046FEB4A
:1010C00071E086EB93E00E94A80461E085E00E9455
:1010D00042046FEC71E086EB93E00E94A8046CED93
:1010E00075E080E090E00E94FA000E94750460E0E4
:1010F00083E00E94420466ED71E086EB93E00E947B
:10110000A80461E083E00E94420461EE71E086EB96
:1011100093E00E94A80468EE73E080E090E00E94F3
:10112000FA000E94750460E083E00E9442046CEEC5
:1011300071E086EB93E00E94A80461E083E00E94E6
:10114000420467EF71E086EB93E00E94A80468EE2A
:1011500073E080E090E00E94FA000E94750460E075
:1011600083E00E94420462E072E086EB93E00E941A
:10117000A80468EE73E080E090E00E94FA000E940C
:10118000750460E082E00E9442046DE072E086EB4C
:1011900093E00E94A8046BE172E08DE093E00E946E
:1011A000A804C0900003D09001030D2C000CEE08A1
:1011B000FF08F7FE8FC06DE28DE093E00E94CE0144
:1011C00022273327A9012C193D094E095F0919A2CD
:1011D000CE0181967C017AE0872E912CA12CB12C36
:1011E000CA01B901A50194010E94A409605DF7013B
:1011F00062937F01211531054105510589F7E114FD
:10120000F10429F0B7018DE093E00E9486048CE29E
:1012100092E00E9495040E94E20480E4F82E882463
:101220008A9493E0992EA12CB12C20E0C22E20E0CC
:10123000D22EF0927C0080917A00806480937A00B4
:1012400080917A0086FDFCCF0091780010917900A2
:1012500010930303009302039801ACE9BFEF0E94CF
:10126000D509A50194010E9485092C593F4F4F4F84
:101270005F4F30930103209300038091FE02909111
:10128000FF028017910751F00E94E204809102034F
:10129000909103039093FF028093FE0280910003DC
:1012A00090910103CC9724F060E082E00E948900D5
:1012B00068EC70E080E090E00E94FA00C114D10474
:1012C00009F4B7CF0E949801882309F4B2CF0E9495
:1012D0000000AFCFA701960119A2CE0181967C0133
:1012E0006AE0862E912CA12CB12CCA01B901A5016E
:1012F00094010E94A409605DF70162937F012115AA
:1013000031054105510589F77ACF052E97FB1EF46B
:1013100000940E949C0957FD07D00E94A40907FC75
:1013200003D04EF40C949C0950954095309521952E
:101330003F4F4F4F5F4F0895909580957095619501
:101340007F4F8F4F9F4F0895A1E21A2EAA1BBB1B00
:10135000FD010DC0AA1FBB1FEE1FFF1FA217B30781
:10136000E407F50720F0A21BB30BE40BF50B661F97
:10137000771F881F991F1A9469F76095709580955B
:1013800090959B01AC01BD01CF010895A29FB001D2
:10139000B39FC001A39F700D811D1124911DB29FA9
:1013A000700D811D1124911D08950E94C6093323DB
:1013B00012F48A1B9B0B0C94DF090E94C609B7FF2D
:1013C0000895821B930B0895EE0FFF1F0590F49173
:1013D000E02D0994FB01DC0101900D920020E1F762
:1013E0000895AEE0B0E0E7EFF9E00C94A00C0D89B1
:1013F0001E8986E08C831A8309838FEF9FE79E8383
:101400008D83AE01475E5F4F6F89788DCE01019667
:101410000E94140A2F813885020F131FF8011082D1
:101420002E96E4E00C94BC0CABE0B0E0EAE1FAE00C
:101430000C94920C7C013B018A01FC0117821682FC
:10144000838181FFC8C1CE0101965C01F7019381C0
:10145000F30193FD859193FF81913F01882309F466
:1014600053C1853239F493FD859193FF81913F01FA
:10147000853229F4B70190E00E94040CE7CF912C4B
:10148000212C312CFFE1F31538F08B3211F190F45F
:10149000803209F1833229F137FC3CC020ED280F5E
:1014A0002A3050F536FE20C08AE0989E200D112487
:1014B000922E06C08D3291F0803371F7689430F827
:1014C000F30193FD859193FF81913F018111DACF63
:1014D00021C0689431F8689432F8F2CF689433F8F8
:1014E000EFCF689434F8ECCFEAE02E9E200D112463
:1014F000222E689435F8E4CF8E3229F436FC04C1EC
:10150000689436F8DDCF8C3619F4689437F8D8CF64
:101510008836B1F2982F9F7D95549330E0F0833652
:10152000A1F18337C1F1833509F063C02801F2E0EE
:101530004F0E511CF801C080D180692D70E036FC3F
:1015400002C06FEF7FEFC6010E94EE0B4C01689462
:1015500037F882010AC00C5F1F4FFFE3F98388242C
:101560008394912C6501E89437F833FE2DC0522CFA
:101570008114910471F5552009F468CFB70180E218
:1015800090E00E94040C5A94F6CFF8018081898380
:101590000E5F1F4FE4CF2801F2E04F0E511CF801FF
:1015A000C080D180692D70E036FC02C06FEF7FEF04
:1015B000C6010E94F90B4C018201D5CFB70180E230
:1015C00090E00E94040C2A942814190409F0B0F742
:1015D000CECFF60137FC859137FE81916F01B701BF
:1015E00090E00E94040C51105A94F1E08F1A910877
:1015F000BFCF843619F0893609F077C0F80137FE7D
:101600006BC060817181828193810C5F1F4FF32DCC
:10161000FF763F2E97FF09C0909580957095619554
:101620007F4F8F4F9F4F689437F82AE030E0A50135
:101630000E94340CC82ECA188C2C432C36FE0CC0C9
:10164000E89440F8C91440F434FE05C032FC03C0ED
:10165000F32DFE7E4F2E892C44FE95C0FE01EC0D2D
:10166000F11D8081803309F087C0242D297E422E10
:10167000842D8870582E43FC95C040FE8FC09C2C52
:10168000821418F42C0C922C981844FE91C0B701C7
:1016900080E390E00E94040C42FE09C088E790E0DD
:1016A00041FE02C088E590E0B7010E94040CC91415
:1016B00008F48AC0CA94D12C9FEFC91AD90ACA0C5F
:1016C000DB1CF60182916F01B70190E00E94040CCF
:1016D000AC14BD04B1F74FCF60817181072E000CAF
:1016E000880B990B0E5F1F4F92CFD32CE894D4F840
:1016F0002AE030E0853739F1232D297FD22E8F362D
:1017000001F148F48835A9F0F701868197812B967D
:10171000E2E10C94AE0C803749F08837A9F7D4FE8B
:1017200002C06894D2F820E130E00DC06894D4F88B
:10173000F6CF34FE03C0822F8660D82E20E132E03F
:1017400002C028E030E0F801D7FE0FC0608171814F
:10175000828193810C5F1F4FA5010E94340CC82E1B
:10176000CA183D2CE89437F867CF6081718190E00A
:1017700080E00E5F1F4FF0CF42FC02C0839478CF11
:101780008394839475CF842D867809F471CFF6CF36
:10179000B70180E290E00E94040C83948214C0F3AD
:1017A000512C73CF522C5818821408F46ECFF8CFF6
:1017B000842D867809F47BCF8BE241FE80E247FCE2
:1017C0008DE2B70190E071CFB70180E390E00E9415
:1017D000040C9A946CCF8FEF9FEF99CFFC0105908A
:1017E000615070400110D8F7809590958E0F9F1F23
:1017F0000895FC016150704001900110D8F7809568
:1018000090958E0F9F1F08950F931F93CF93DF9393
:10181000182F092FEB018B8181FD09C01FEF0FEFFE
:10182000812F902FDF91CF911F910F91089582FF0B
:1018300014C02E813F818C819D81281739073CF48B
:10184000E881F981CF0101969983888310838E8185
:101850009F8101969F838E83E3CFE885F985812F51
:101860000995892BA1F3DACFFA01AA27283051F183
:10187000203181F1E8946F936E7F6E5F7F4F8F4FC1
:101880009F4FAF4FB1E03ED0B4E03CD0670F781F20
:10189000891F9A1FA11D680F791F8A1F911DA11D05
:1018A0006A0F711D811D911DA11D20D009F468943E
:1018B0003F912AE0269F11243019305D3193DEF6E6
:1018C000CF010895462F4770405D4193B3E00FD09C
:1018D000C9F7F6CF462F4F70405D4A3318F0495D87
:1018E00031FD4052419302D0A9F7EACFB4E0A6956A
:1018F0009795879577956795BA95C9F7009761058C
:10190000710508959B01AC010A2E069457954795E1
:1019100037952795BA95C9F7620F731F841F951FD6
:10192000A01D08952F923F924F925F926F927F92E7
:101930008F929F92AF92BF92CF92DF92EF92FF92DF
:101940000F931F93CF93DF93CDB7DEB7CA1BDB0B8B
:101950000FB6F894DEBF0FBECDBF09942A88398830
:1019600048885F846E847D848C849B84AA84B98437
:10197000C884DF80EE80FD800C811B81AA81B98143
:10198000CE0FD11D0FB6F894DEBF0FBECDBFED0157
:061990000895F894FFCF5A
:10199600000040001400540000000000CE012E019B
:1019A6005B011B028C016A017E0100000000F90246
:1019B600CC020F04A202C502B202A302000000007C
:1019C60080042E010F043B020D0A002533642025F6
:1019D60025005374617475733A2054616E616820F2
:1019E6007465726C616C752062617361680057651D
:1019F6007420202020202020005374617475733ACF
:101A0600204B656C656D626170616E206E6F726DE4
:101A1600616C005065726665637420202000537403
:101A2600617475733A2054616E6168207465726CD6
:101A3600616C75206B6572696E67205B50554D5001
:101A4600204F4E5D00447279202020202020005334
:101A56004D4152542047415244454E494E4700534A
:101A6600595354454D0032322E31312E35303332F2
:101A76000032322E31312E353036360032322E31AA
:101A8600312E353032320032322E31312E3530326F
:101A9600310032322E31312E3530323000536F69FB
:101AA6006C204D6F69737475726500536F696C2095
:101AB6004D6F697374757265203D20002025000006
:00000001FF
